{
  "contractName": "Factory",
  "abi": [
    {
      "inputs": [],
      "stateMutability": "nonpayable",
      "type": "constructor"
    },
    {
      "anonymous": false,
      "inputs": [
        {
          "indexed": true,
          "internalType": "address",
          "name": "deployed",
          "type": "address"
        }
      ],
      "name": "Deployed",
      "type": "event"
    },
    {
      "inputs": [
        {
          "internalType": "address",
          "name": "implementation",
          "type": "address"
        },
        {
          "internalType": "bytes",
          "name": "data",
          "type": "bytes"
        }
      ],
      "name": "launch",
      "outputs": [
        {
          "internalType": "address",
          "name": "instance",
          "type": "address"
        }
      ],
      "stateMutability": "nonpayable",
      "type": "function"
    }
  ],
  "bytecode": "0x608060405234801561001057600080fd5b5061030b806100206000396000f3fe608060405234801561001057600080fd5b506004361061002b5760003560e01c8063a1cdfa3214610030575b600080fd5b61004361003e3660046101b0565b61005f565b6040516001600160a01b03909116815260200160405180910390f35b6000604051733d602d80600a3d3981f3363d3d373d3d3d363d7360601b81528360601b60148201526e5af43d82803e903d91602b57fd5bf360881b60288201526037816000f09150506001600160a01b0381166101025760405162461bcd60e51b815260206004820152601a60248201527f436f6e7472616374206661696c656420746f206465706c6f792e000000000000604482015260640160405180910390fd5b6040516001600160a01b038216907ff40fcec21964ffb566044d083b4073f29f7f7929110ea19e1b3ebe375d89055e90600090a2604051631377d1f560e21b81526001600160a01b03821690634ddf47d490610162908590600401610280565b600060405180830381600087803b15801561017c57600080fd5b505af1158015610190573d6000803e3d6000fd5b5050505092915050565b634e487b7160e01b600052604160045260246000fd5b600080604083850312156101c357600080fd5b82356001600160a01b03811681146101da57600080fd5b9150602083013567ffffffffffffffff808211156101f757600080fd5b818501915085601f83011261020b57600080fd5b81358181111561021d5761021d61019a565b604051601f8201601f19908116603f011681019083821181831017156102455761024561019a565b8160405282815288602084870101111561025e57600080fd5b8260208601602083013760006020848301015280955050505050509250929050565b600060208083528351808285015260005b818110156102ad57858101830151858201604001528201610291565b818111156102bf576000604083870101525b50601f01601f191692909201604001939250505056fea2646970667358221220b3f2553a6e813f9edb1dbe8f397024c7029f391d7e1b9948ecb01f744deedaa364736f6c634300080b0033",
  "immutableReferences": {},
  "source": "//SPDX-License-Identifier: MIT\n\npragma solidity ^0.8.0;\n\ninterface ILaunchMyNft {\n    function init(bytes calldata data) external;\n}\n\ncontract Factory {\n    constructor() {}\n    event Deployed (address indexed deployed);\n\n    function launch (address implementation, bytes memory data) external returns (address instance) {\n        assembly {\n            let ptr := mload(0x40)\n            mstore(ptr, 0x3d602d80600a3d3981f3363d3d373d3d3d363d73000000000000000000000000)\n            mstore(add(ptr, 0x14), shl(0x60, implementation))\n            mstore(add(ptr, 0x28), 0x5af43d82803e903d91602b57fd5bf30000000000000000000000000000000000)\n            instance := create(0, ptr, 0x37)\n        }\n        require(instance != address(0), \"Contract failed to deploy.\");\n        emit Deployed(instance);\n\n        ILaunchMyNft(instance).init(data);\n    }\n}",
  "sourcePath": "/Users/kmo/Github/vesting/src/contracts/Factory.sol",
  "compiler": {
    "name": "solc",
    "version": "0.8.11+commit.d7f03943.Emscripten.clang"
  },
  "schemaVersion": "3.4.3",
  "updatedAt": "2022-02-11T16:30:52.247Z",
  "devdoc": {
    "kind": "dev",
    "methods": {},
    "version": 1
  },
  "userdoc": {
    "kind": "user",
    "methods": {},
    "version": 1
  }
}