{
  "contractName": "LaunchMyNFT",
  "abi": [
    {
      "inputs": [],
      "stateMutability": "nonpayable",
      "type": "constructor"
    },
    {
      "inputs": [
        {
          "internalType": "string",
          "name": "msg",
          "type": "string"
        }
      ],
      "name": "AlreadyClaimed",
      "type": "error"
    },
    {
      "inputs": [
        {
          "internalType": "string",
          "name": "msg",
          "type": "string"
        }
      ],
      "name": "AlreadyInitialized",
      "type": "error"
    },
    {
      "inputs": [
        {
          "internalType": "string",
          "name": "msg",
          "type": "string"
        }
      ],
      "name": "InsufficientFunds",
      "type": "error"
    },
    {
      "inputs": [
        {
          "internalType": "string",
          "name": "msg",
          "type": "string"
        }
      ],
      "name": "InvalidProof",
      "type": "error"
    },
    {
      "inputs": [
        {
          "internalType": "string",
          "name": "msg",
          "type": "string"
        }
      ],
      "name": "NotOwner",
      "type": "error"
    },
    {
      "inputs": [
        {
          "internalType": "string",
          "name": "msg",
          "type": "string"
        }
      ],
      "name": "SoldOut",
      "type": "error"
    },
    {
      "inputs": [
        {
          "internalType": "string",
          "name": "msg",
          "type": "string"
        }
      ],
      "name": "WhitelistActive",
      "type": "error"
    },
    {
      "inputs": [
        {
          "internalType": "string",
          "name": "msg",
          "type": "string"
        }
      ],
      "name": "WhitelistInactive",
      "type": "error"
    },
    {
      "anonymous": false,
      "inputs": [
        {
          "indexed": true,
          "internalType": "address",
          "name": "owner",
          "type": "address"
        },
        {
          "indexed": true,
          "internalType": "address",
          "name": "spender",
          "type": "address"
        },
        {
          "indexed": true,
          "internalType": "uint256",
          "name": "id",
          "type": "uint256"
        }
      ],
      "name": "Approval",
      "type": "event"
    },
    {
      "anonymous": false,
      "inputs": [
        {
          "indexed": true,
          "internalType": "address",
          "name": "owner",
          "type": "address"
        },
        {
          "indexed": true,
          "internalType": "address",
          "name": "operator",
          "type": "address"
        },
        {
          "indexed": false,
          "internalType": "bool",
          "name": "approved",
          "type": "bool"
        }
      ],
      "name": "ApprovalForAll",
      "type": "event"
    },
    {
      "anonymous": false,
      "inputs": [
        {
          "indexed": true,
          "internalType": "contract IERC20",
          "name": "token",
          "type": "address"
        },
        {
          "indexed": false,
          "internalType": "address",
          "name": "to",
          "type": "address"
        },
        {
          "indexed": false,
          "internalType": "uint256",
          "name": "amount",
          "type": "uint256"
        }
      ],
      "name": "ERC20PaymentReleased",
      "type": "event"
    },
    {
      "anonymous": false,
      "inputs": [
        {
          "indexed": true,
          "internalType": "address",
          "name": "owner",
          "type": "address"
        },
        {
          "indexed": false,
          "internalType": "string",
          "name": "tokenURI",
          "type": "string"
        },
        {
          "indexed": true,
          "internalType": "uint256",
          "name": "mintTime",
          "type": "uint256"
        }
      ],
      "name": "Minted",
      "type": "event"
    },
    {
      "anonymous": false,
      "inputs": [
        {
          "indexed": false,
          "internalType": "address",
          "name": "account",
          "type": "address"
        },
        {
          "indexed": false,
          "internalType": "uint256",
          "name": "shares",
          "type": "uint256"
        }
      ],
      "name": "PayeeAdded",
      "type": "event"
    },
    {
      "anonymous": false,
      "inputs": [
        {
          "indexed": false,
          "internalType": "address",
          "name": "from",
          "type": "address"
        },
        {
          "indexed": false,
          "internalType": "uint256",
          "name": "amount",
          "type": "uint256"
        }
      ],
      "name": "PaymentReceived",
      "type": "event"
    },
    {
      "anonymous": false,
      "inputs": [
        {
          "indexed": false,
          "internalType": "address",
          "name": "to",
          "type": "address"
        },
        {
          "indexed": false,
          "internalType": "uint256",
          "name": "amount",
          "type": "uint256"
        }
      ],
      "name": "PaymentReleased",
      "type": "event"
    },
    {
      "anonymous": false,
      "inputs": [
        {
          "indexed": true,
          "internalType": "address",
          "name": "from",
          "type": "address"
        },
        {
          "indexed": true,
          "internalType": "address",
          "name": "to",
          "type": "address"
        },
        {
          "indexed": true,
          "internalType": "uint256",
          "name": "id",
          "type": "uint256"
        }
      ],
      "name": "Transfer",
      "type": "event"
    },
    {
      "inputs": [
        {
          "internalType": "address",
          "name": "spender",
          "type": "address"
        },
        {
          "internalType": "uint256",
          "name": "id",
          "type": "uint256"
        }
      ],
      "name": "approve",
      "outputs": [],
      "stateMutability": "nonpayable",
      "type": "function"
    },
    {
      "inputs": [
        {
          "internalType": "address",
          "name": "",
          "type": "address"
        }
      ],
      "name": "balanceOf",
      "outputs": [
        {
          "internalType": "uint256",
          "name": "",
          "type": "uint256"
        }
      ],
      "stateMutability": "view",
      "type": "function"
    },
    {
      "inputs": [],
      "name": "cost",
      "outputs": [
        {
          "internalType": "uint256",
          "name": "",
          "type": "uint256"
        }
      ],
      "stateMutability": "view",
      "type": "function"
    },
    {
      "inputs": [
        {
          "internalType": "uint256",
          "name": "",
          "type": "uint256"
        }
      ],
      "name": "getApproved",
      "outputs": [
        {
          "internalType": "address",
          "name": "",
          "type": "address"
        }
      ],
      "stateMutability": "view",
      "type": "function"
    },
    {
      "inputs": [
        {
          "internalType": "address",
          "name": "",
          "type": "address"
        },
        {
          "internalType": "address",
          "name": "",
          "type": "address"
        }
      ],
      "name": "isApprovedForAll",
      "outputs": [
        {
          "internalType": "bool",
          "name": "",
          "type": "bool"
        }
      ],
      "stateMutability": "view",
      "type": "function"
    },
    {
      "inputs": [],
      "name": "maxSupply",
      "outputs": [
        {
          "internalType": "uint256",
          "name": "",
          "type": "uint256"
        }
      ],
      "stateMutability": "view",
      "type": "function"
    },
    {
      "inputs": [],
      "name": "name",
      "outputs": [
        {
          "internalType": "string",
          "name": "",
          "type": "string"
        }
      ],
      "stateMutability": "view",
      "type": "function"
    },
    {
      "inputs": [],
      "name": "owner",
      "outputs": [
        {
          "internalType": "address",
          "name": "",
          "type": "address"
        }
      ],
      "stateMutability": "view",
      "type": "function"
    },
    {
      "inputs": [
        {
          "internalType": "uint256",
          "name": "",
          "type": "uint256"
        }
      ],
      "name": "ownerOf",
      "outputs": [
        {
          "internalType": "address",
          "name": "",
          "type": "address"
        }
      ],
      "stateMutability": "view",
      "type": "function"
    },
    {
      "inputs": [
        {
          "internalType": "uint256",
          "name": "index",
          "type": "uint256"
        }
      ],
      "name": "payee",
      "outputs": [
        {
          "internalType": "address",
          "name": "",
          "type": "address"
        }
      ],
      "stateMutability": "view",
      "type": "function"
    },
    {
      "inputs": [
        {
          "internalType": "address payable",
          "name": "account",
          "type": "address"
        }
      ],
      "name": "release",
      "outputs": [],
      "stateMutability": "nonpayable",
      "type": "function"
    },
    {
      "inputs": [
        {
          "internalType": "contract IERC20",
          "name": "token",
          "type": "address"
        },
        {
          "internalType": "address",
          "name": "account",
          "type": "address"
        }
      ],
      "name": "release",
      "outputs": [],
      "stateMutability": "nonpayable",
      "type": "function"
    },
    {
      "inputs": [
        {
          "internalType": "contract IERC20",
          "name": "token",
          "type": "address"
        },
        {
          "internalType": "address",
          "name": "account",
          "type": "address"
        }
      ],
      "name": "released",
      "outputs": [
        {
          "internalType": "uint256",
          "name": "",
          "type": "uint256"
        }
      ],
      "stateMutability": "view",
      "type": "function"
    },
    {
      "inputs": [
        {
          "internalType": "address",
          "name": "account",
          "type": "address"
        }
      ],
      "name": "released",
      "outputs": [
        {
          "internalType": "uint256",
          "name": "",
          "type": "uint256"
        }
      ],
      "stateMutability": "view",
      "type": "function"
    },
    {
      "inputs": [
        {
          "internalType": "address",
          "name": "from",
          "type": "address"
        },
        {
          "internalType": "address",
          "name": "to",
          "type": "address"
        },
        {
          "internalType": "uint256",
          "name": "id",
          "type": "uint256"
        }
      ],
      "name": "safeTransferFrom",
      "outputs": [],
      "stateMutability": "nonpayable",
      "type": "function"
    },
    {
      "inputs": [
        {
          "internalType": "address",
          "name": "from",
          "type": "address"
        },
        {
          "internalType": "address",
          "name": "to",
          "type": "address"
        },
        {
          "internalType": "uint256",
          "name": "id",
          "type": "uint256"
        },
        {
          "internalType": "bytes",
          "name": "data",
          "type": "bytes"
        }
      ],
      "name": "safeTransferFrom",
      "outputs": [],
      "stateMutability": "nonpayable",
      "type": "function"
    },
    {
      "inputs": [
        {
          "internalType": "address",
          "name": "operator",
          "type": "address"
        },
        {
          "internalType": "bool",
          "name": "approved",
          "type": "bool"
        }
      ],
      "name": "setApprovalForAll",
      "outputs": [],
      "stateMutability": "nonpayable",
      "type": "function"
    },
    {
      "inputs": [
        {
          "internalType": "address",
          "name": "account",
          "type": "address"
        }
      ],
      "name": "shares",
      "outputs": [
        {
          "internalType": "uint256",
          "name": "",
          "type": "uint256"
        }
      ],
      "stateMutability": "view",
      "type": "function"
    },
    {
      "inputs": [
        {
          "internalType": "bytes4",
          "name": "interfaceId",
          "type": "bytes4"
        }
      ],
      "name": "supportsInterface",
      "outputs": [
        {
          "internalType": "bool",
          "name": "",
          "type": "bool"
        }
      ],
      "stateMutability": "pure",
      "type": "function"
    },
    {
      "inputs": [],
      "name": "symbol",
      "outputs": [
        {
          "internalType": "string",
          "name": "",
          "type": "string"
        }
      ],
      "stateMutability": "view",
      "type": "function"
    },
    {
      "inputs": [
        {
          "internalType": "contract IERC20",
          "name": "token",
          "type": "address"
        }
      ],
      "name": "totalReleased",
      "outputs": [
        {
          "internalType": "uint256",
          "name": "",
          "type": "uint256"
        }
      ],
      "stateMutability": "view",
      "type": "function"
    },
    {
      "inputs": [],
      "name": "totalReleased",
      "outputs": [
        {
          "internalType": "uint256",
          "name": "",
          "type": "uint256"
        }
      ],
      "stateMutability": "view",
      "type": "function"
    },
    {
      "inputs": [],
      "name": "totalShares",
      "outputs": [
        {
          "internalType": "uint256",
          "name": "",
          "type": "uint256"
        }
      ],
      "stateMutability": "view",
      "type": "function"
    },
    {
      "inputs": [],
      "name": "totalSupply",
      "outputs": [
        {
          "internalType": "uint256",
          "name": "",
          "type": "uint256"
        }
      ],
      "stateMutability": "view",
      "type": "function"
    },
    {
      "inputs": [
        {
          "internalType": "address",
          "name": "from",
          "type": "address"
        },
        {
          "internalType": "address",
          "name": "to",
          "type": "address"
        },
        {
          "internalType": "uint256",
          "name": "id",
          "type": "uint256"
        }
      ],
      "name": "transferFrom",
      "outputs": [],
      "stateMutability": "nonpayable",
      "type": "function"
    },
    {
      "inputs": [],
      "name": "whitelistActive",
      "outputs": [
        {
          "internalType": "bool",
          "name": "",
          "type": "bool"
        }
      ],
      "stateMutability": "view",
      "type": "function"
    },
    {
      "inputs": [
        {
          "internalType": "address",
          "name": "",
          "type": "address"
        }
      ],
      "name": "whitelistClaimed",
      "outputs": [
        {
          "internalType": "bool",
          "name": "",
          "type": "bool"
        }
      ],
      "stateMutability": "view",
      "type": "function"
    },
    {
      "inputs": [],
      "name": "whitelistCost",
      "outputs": [
        {
          "internalType": "uint256",
          "name": "",
          "type": "uint256"
        }
      ],
      "stateMutability": "view",
      "type": "function"
    },
    {
      "stateMutability": "payable",
      "type": "receive"
    },
    {
      "inputs": [
        {
          "internalType": "bytes",
          "name": "data",
          "type": "bytes"
        }
      ],
      "name": "init",
      "outputs": [],
      "stateMutability": "nonpayable",
      "type": "function"
    },
    {
      "inputs": [
        {
          "internalType": "bytes32",
          "name": "_merkleRoot",
          "type": "bytes32"
        }
      ],
      "name": "setWhitelist",
      "outputs": [],
      "stateMutability": "nonpayable",
      "type": "function"
    },
    {
      "inputs": [],
      "name": "toggleWhitelist",
      "outputs": [],
      "stateMutability": "nonpayable",
      "type": "function"
    },
    {
      "inputs": [],
      "name": "mint",
      "outputs": [],
      "stateMutability": "payable",
      "type": "function"
    },
    {
      "inputs": [
        {
          "internalType": "bytes32[]",
          "name": "_merkleProof",
          "type": "bytes32[]"
        }
      ],
      "name": "whitelistMint",
      "outputs": [],
      "stateMutability": "payable",
      "type": "function"
    },
    {
      "inputs": [
        {
          "internalType": "uint256",
          "name": "tokenId",
          "type": "uint256"
        }
      ],
      "name": "tokenURI",
      "outputs": [
        {
          "internalType": "string",
          "name": "",
          "type": "string"
        }
      ],
      "stateMutability": "view",
      "type": "function"
    }
  ],
  "bytecode": "0x60806040523480156200001157600080fd5b50604080516020808201808452600080845284519283019094528382528251929391926200004192919062000072565b5080516200005790600190602084019062000072565b5050601180546001600160a01b031916321790555062000155565b828054620000809062000118565b90600052602060002090601f016020900481019282620000a45760008555620000ef565b82601f10620000bf57805160ff1916838001178555620000ef565b82800160010185558215620000ef579182015b82811115620000ef578251825591602001919060010190620000d2565b50620000fd92915062000101565b5090565b5b80821115620000fd576000815560010162000102565b600181811c908216806200012d57607f821691505b602082108114156200014f57634e487b7160e01b600052602260045260246000fd5b50919050565b61299680620001656000396000f3fe6080604052600436106101fd5760003560e01c80636352211e1161010d578063b88d4fde116100a0578063d79779b21161006f578063d79779b214610641578063db4bec4414610677578063e33b7de3146106a7578063e7b99ec7146106bc578063e985e9c5146106d257600080fd5b8063b88d4fde146105b5578063c87b56dd146105d5578063ce7c2ac2146105f5578063d5abeb011461062b57600080fd5b80638da5cb5b116100dc5780638da5cb5b1461052a57806395d89b411461054a5780639852595c1461055f578063a22cb4651461059557600080fd5b80636352211e1461049257806370a08231146104c85780637e15144b146104f55780638b83209b1461050a57600080fd5b80631916558711610190578063406072a91161015f578063406072a9146103cc57806342842e0e14610412578063440bc7f31461043257806348b75044146104525780634ddf47d41461047257600080fd5b8063191655871461036457806323b872dd14610384578063372f657c146103a45780633a98ef39146103b757600080fd5b8063095ea7b3116101cc578063095ea7b3146103005780631249c58b1461032257806313faede61461032a57806318160ddd1461034e57600080fd5b806301ffc9a71461024157806302ce58131461027657806306fdde0314610290578063081812fc146102b257600080fd5b3661023c57604080513381523460208201527f6ef95f06320e7a25a04a175ca677b7052bdd97131872c2192525a629f51be770910160405180910390a1005b600080fd5b34801561024d57600080fd5b5061026161025c36600461202b565b61070d565b60405190151581526020015b60405180910390f35b34801561028257600080fd5b506014546102619060ff1681565b34801561029c57600080fd5b506102a561075f565b60405161026d91906120a0565b3480156102be57600080fd5b506102e86102cd3660046120b3565b6004602052600090815260409020546001600160a01b031681565b6040516001600160a01b03909116815260200161026d565b34801561030c57600080fd5b5061032061031b3660046120e1565b6107ed565b005b6103206108d4565b34801561033657600080fd5b50610340600e5481565b60405190815260200161026d565b34801561035a57600080fd5b50610340600d5481565b34801561037057600080fd5b5061032061037f36600461211d565b6109d0565b34801561039057600080fd5b5061032061039f36600461213a565b610afe565b6103206103b236600461217b565b610cc5565b3480156103c357600080fd5b50600654610340565b3480156103d857600080fd5b506103406103e73660046121f0565b6001600160a01b039182166000908152600c6020908152604080832093909416825291909152205490565b34801561041e57600080fd5b5061032061042d36600461213a565b610f36565b34801561043e57600080fd5b5061032061044d3660046120b3565b61100b565b34801561045e57600080fd5b5061032061046d3660046121f0565b611057565b34801561047e57600080fd5b5061032061048d366004612229565b611230565b34801561049e57600080fd5b506102e86104ad3660046120b3565b6003602052600090815260409020546001600160a01b031681565b3480156104d457600080fd5b506103406104e336600461211d565b60026020526000908152604090205481565b34801561050157600080fd5b5061032061134f565b34801561051657600080fd5b506102e86105253660046120b3565b6113aa565b34801561053657600080fd5b506011546102e8906001600160a01b031681565b34801561055657600080fd5b506102a56113da565b34801561056b57600080fd5b5061034061057a36600461211d565b6001600160a01b031660009081526009602052604090205490565b3480156105a157600080fd5b506103206105b03660046122a2565b6113e7565b3480156105c157600080fd5b506103206105d036600461236f565b611453565b3480156105e157600080fd5b506102a56105f03660046120b3565b611515565b34801561060157600080fd5b5061034061061036600461211d565b6001600160a01b031660009081526008602052604090205490565b34801561063757600080fd5b5061034060105481565b34801561064d57600080fd5b5061034061065c36600461211d565b6001600160a01b03166000908152600b602052604090205490565b34801561068357600080fd5b5061026161069236600461211d565b60156020526000908152604090205460ff1681565b3480156106b357600080fd5b50600754610340565b3480156106c857600080fd5b50610340600f5481565b3480156106de57600080fd5b506102616106ed3660046121f0565b600560209081526000928352604080842090915290825290205460ff1681565b60006301ffc9a760e01b6001600160e01b03198316148061073e57506380ac58cd60e01b6001600160e01b03198316145b806107595750635b5e139f60e01b6001600160e01b03198316145b92915050565b6000805461076c906123ef565b80601f0160208091040260200160405190810160405280929190818152602001828054610798906123ef565b80156107e55780601f106107ba576101008083540402835291602001916107e5565b820191906000526020600020905b8154815290600101906020018083116107c857829003601f168201915b505050505081565b6000818152600360205260409020546001600160a01b03163381148061083657506001600160a01b038116600090815260056020908152604080832033845290915290205460ff165b6108785760405162461bcd60e51b815260206004820152600e60248201526d1393d517d055551213d49256915160921b60448201526064015b60405180910390fd5b60008281526004602052604080822080546001600160a01b0319166001600160a01b0387811691821790925591518593918516917f8c5be1e5ebec7d5bd14f71427d1e84f3dd0314c0f7b2291e5b200ac8c7c3b92591a4505050565b60145460ff161561091b5760405163384e2f7560e21b815260206004820152601060248201526f57686974656c6973742061637469766560801b604482015260640161086f565b601054600d5461092c906001612440565b1115610966576040516347927ac160e01b815260206004820152600860248201526714dbdb19081bdd5d60c21b604482015260640161086f565b600e5434146109ad57604051633e49f6c360e21b8152602060048201526012602482015271496e73756666696369656e742066756e647360701b604482015260640161086f565b600d80549060006109bd83612458565b91905055506109ce33600d54611549565b565b6001600160a01b038116600090815260086020526040902054610a055760405162461bcd60e51b815260040161086f90612473565b6000610a1060075490565b610a1a9047612440565b90506000610a478383610a42866001600160a01b031660009081526009602052604090205490565b611619565b905080610a665760405162461bcd60e51b815260040161086f906124b9565b6001600160a01b03831660009081526009602052604081208054839290610a8e908490612440565b925050819055508060076000828254610aa79190612440565b90915550610ab790508382611661565b604080516001600160a01b0385168152602081018390527fdf20fd1e76bc69d672e4814fafb2c449bba3a5369d8359adf9e05e6fde87b056910160405180910390a1505050565b6000818152600360205260409020546001600160a01b03848116911614610b545760405162461bcd60e51b815260206004820152600a60248201526957524f4e475f46524f4d60b01b604482015260640161086f565b6001600160a01b038216610b9e5760405162461bcd60e51b81526020600482015260116024820152701253959053125117d49150d25412515395607a1b604482015260640161086f565b336001600160a01b0384161480610bcb57506000818152600460205260409020546001600160a01b031633145b80610bf957506001600160a01b038316600090815260056020908152604080832033845290915290205460ff165b610c365760405162461bcd60e51b815260206004820152600e60248201526d1393d517d055551213d49256915160921b604482015260640161086f565b6001600160a01b0380841660008181526002602090815260408083208054600019019055938616808352848320805460010190558583526003825284832080546001600160a01b03199081168317909155600490925284832080549092169091559251849392917fddf252ad1be2c89b69c2b068fc378daa952ba7f163c4a11628f55a4df523b3ef91a4505050565b60145460ff16610d10576040516394f9df8560e01b815260206004820152601560248201527457686974656c69737420697320696e61637469766560581b604482015260640161086f565b3360009081526015602052604090205460ff1615610d635760405163032108ed60e21b815260206004820152600f60248201526e105b1c9958591e4818db185a5b5959608a1b604482015260640161086f565b601054600d54610d74906001612440565b1115610dae576040516347927ac160e01b815260206004820152600860248201526714dbdb19081bdd5d60c21b604482015260640161086f565b600f543414610df557604051633e49f6c360e21b8152602060048201526012602482015271496e73756666696369656e742066756e647360701b604482015260640161086f565b6040516bffffffffffffffffffffffff193360601b166020820152600090603401604051602081830303815290604052805190602001209050610e6f83838080602002602001604051908101604052809392919081815260200183836020028082843760009201919091525050601354915084905061177a565b610eac57604051635e857f5b60e11b815260206004820152600d60248201526c24b73b30b634b210383937b7b360991b604482015260640161086f565b336000908152601560205260408120805460ff19166001179055600d805491610ed483612458565b9190505550610ee533600d54611549565b42336001600160a01b03167fe678c8da3d2d6082f140bbbaa1ee822f0c7072ab604536db4a3e0315f8a92776610f1c600d54611515565b604051610f2991906120a0565b60405180910390a3505050565b610f41838383610afe565b6001600160a01b0382163b1580610fea5750604051630a85bd0160e11b8082523360048301526001600160a01b03858116602484015260448301849052608060648401526000608484015290919084169063150b7a029060a4016020604051808303816000875af1158015610fba573d6000803e3d6000fd5b505050506040513d601f19601f82011682018060405250810190610fde9190612504565b6001600160e01b031916145b6110065760405162461bcd60e51b815260040161086f90612521565b505050565b6011546001600160a01b031633146110525760405163f7251ccf60e01b81526020600482015260096024820152682737ba1037bbb732b960b91b604482015260640161086f565b601355565b6001600160a01b03811660009081526008602052604090205461108c5760405162461bcd60e51b815260040161086f90612473565b6001600160a01b0382166000908152600b60205260408120546040516370a0823160e01b81523060048201526001600160a01b038516906370a0823190602401602060405180830381865afa1580156110e9573d6000803e3d6000fd5b505050506040513d601f19601f8201168201806040525081019061110d919061254b565b6111179190612440565b905060006111508383610a4287876001600160a01b039182166000908152600c6020908152604080832093909416825291909152205490565b90508061116f5760405162461bcd60e51b815260040161086f906124b9565b6001600160a01b038085166000908152600c60209081526040808320938716835292905290812080548392906111a6908490612440565b90915550506001600160a01b0384166000908152600b6020526040812080548392906111d3908490612440565b909155506111e49050848483611790565b604080516001600160a01b038581168252602082018490528616917f3be5b7a71e84ed12875d241991c70855ac5817d847039e17a9d895c1ceb0f18a910160405180910390a250505050565b601454610100900460ff161561127f5760405163038a07f760e51b8152602060048201526013602482015272105b1c9958591e481a5b9a5d1a585b1a5e9959606a1b604482015260640161086f565b6014805461ff00191661010017905560008080808080808080806112a58b8d018d612677565b99509950995099509950995099509950995099506112c38a8a6117e2565b601180546001600160a01b0319166001600160a01b03861617905587516112f19060009060208b0190611f79565b5086516113059060019060208a0190611f79565b50600e83905560108190558551611323906012906020890190611f79565b506014805460ff1916861580159190911790915561134157600f8290555b505050505050505050505050565b6011546001600160a01b031633146113965760405163f7251ccf60e01b81526020600482015260096024820152682737ba1037bbb732b960b91b604482015260640161086f565b6014805460ff19811660ff90911615179055565b6000600a82815481106113bf576113bf612789565b6000918252602090912001546001600160a01b031692915050565b6001805461076c906123ef565b3360008181526005602090815260408083206001600160a01b03871680855290835292819020805460ff191686151590811790915590519081529192917f17307eab39ab6107e8899845ad3d59bd9653f200f220920489ca2b5937696c31910160405180910390a35050565b61145e848484610afe565b6001600160a01b0383163b15806114f35750604051630a85bd0160e11b808252906001600160a01b0385169063150b7a02906114a490339089908890889060040161279f565b6020604051808303816000875af11580156114c3573d6000803e3d6000fd5b505050506040513d601f19601f820116820180604052508101906114e79190612504565b6001600160e01b031916145b61150f5760405162461bcd60e51b815260040161086f90612521565b50505050565b60606012611522836118f9565b6040516020016115339291906127f8565b6040516020818303038152906040529050919050565b61155382826119ff565b6001600160a01b0382163b15806115f95750604051630a85bd0160e11b80825233600483015260006024830181905260448301849052608060648401526084830152906001600160a01b0384169063150b7a029060a4016020604051808303816000875af11580156115c9573d6000803e3d6000fd5b505050506040513d601f19601f820116820180604052508101906115ed9190612504565b6001600160e01b031916145b6116155760405162461bcd60e51b815260040161086f90612521565b5050565b6006546001600160a01b0384166000908152600860205260408120549091839161164390866128b3565b61164d91906128e8565b61165791906128fc565b90505b9392505050565b804710156116b15760405162461bcd60e51b815260206004820152601d60248201527f416464726573733a20696e73756666696369656e742062616c616e6365000000604482015260640161086f565b6000826001600160a01b03168260405160006040518083038185875af1925050503d80600081146116fe576040519150601f19603f3d011682016040523d82523d6000602084013e611703565b606091505b50509050806110065760405162461bcd60e51b815260206004820152603a60248201527f416464726573733a20756e61626c6520746f2073656e642076616c75652c207260448201527f6563697069656e74206d61792068617665207265766572746564000000000000606482015260840161086f565b6000826117878584611b0a565b14949350505050565b604080516001600160a01b038416602482015260448082018490528251808303909101815260649091019091526020810180516001600160e01b031663a9059cbb60e01b179052611006908490611bb6565b805182511461184e5760405162461bcd60e51b815260206004820152603260248201527f5061796d656e7453706c69747465723a2070617965657320616e6420736861726044820152710cae640d8cadccee8d040dad2e6dac2e8c6d60731b606482015260840161086f565b600082511161189f5760405162461bcd60e51b815260206004820152601a60248201527f5061796d656e7453706c69747465723a206e6f20706179656573000000000000604482015260640161086f565b60005b8251811015611006576118e78382815181106118c0576118c0612789565b60200260200101518383815181106118da576118da612789565b6020026020010151611c88565b806118f181612458565b9150506118a2565b60608161191d5750506040805180820190915260018152600360fc1b602082015290565b8160005b8115611947578061193181612458565b91506119409050600a836128e8565b9150611921565b60008167ffffffffffffffff811115611962576119626122d0565b6040519080825280601f01601f19166020018201604052801561198c576020820181803683370190505b5090505b84156119f7576119a16001836128fc565b91506119ae600a86612913565b6119b9906030612440565b60f81b8183815181106119ce576119ce612789565b60200101906001600160f81b031916908160001a9053506119f0600a866128e8565b9450611990565b949350505050565b6001600160a01b038216611a495760405162461bcd60e51b81526020600482015260116024820152701253959053125117d49150d25412515395607a1b604482015260640161086f565b6000818152600360205260409020546001600160a01b031615611a9f5760405162461bcd60e51b815260206004820152600e60248201526d1053149150511657d3525395115160921b604482015260640161086f565b6001600160a01b038216600081815260026020908152604080832080546001019055848352600390915280822080546001600160a01b0319168417905551839291907fddf252ad1be2c89b69c2b068fc378daa952ba7f163c4a11628f55a4df523b3ef908290a45050565b600081815b8451811015611bae576000858281518110611b2c57611b2c612789565b60200260200101519050808311611b6e576040805160208101859052908101829052606001604051602081830303815290604052805190602001209250611b9b565b60408051602081018390529081018490526060016040516020818303038152906040528051906020012092505b5080611ba681612458565b915050611b0f565b509392505050565b6000611c0b826040518060400160405280602081526020017f5361666545524332303a206c6f772d6c6576656c2063616c6c206661696c6564815250856001600160a01b0316611e6e9092919063ffffffff16565b8051909150156110065780806020019051810190611c299190612927565b6110065760405162461bcd60e51b815260206004820152602a60248201527f5361666545524332303a204552433230206f7065726174696f6e20646964206e6044820152691bdd081cdd58d8d9595960b21b606482015260840161086f565b6001600160a01b038216611cf35760405162461bcd60e51b815260206004820152602c60248201527f5061796d656e7453706c69747465723a206163636f756e74206973207468652060448201526b7a65726f206164647265737360a01b606482015260840161086f565b60008111611d435760405162461bcd60e51b815260206004820152601d60248201527f5061796d656e7453706c69747465723a20736861726573206172652030000000604482015260640161086f565b6001600160a01b03821660009081526008602052604090205415611dbd5760405162461bcd60e51b815260206004820152602b60248201527f5061796d656e7453706c69747465723a206163636f756e7420616c726561647960448201526a206861732073686172657360a81b606482015260840161086f565b600a8054600181019091557fc65a7bb8d6351c1cf70c95a316cc6a92839c986682d98bc35f958f4883f9d2a80180546001600160a01b0319166001600160a01b0384169081179091556000908152600860205260409020819055600654611e25908290612440565b600655604080516001600160a01b0384168152602081018390527f40c340f65e17194d14ddddb073d3c9f888e3cb52b5aae0c6c7706b4fbc905fac910160405180910390a15050565b6060611657848460008585843b611ec75760405162461bcd60e51b815260206004820152601d60248201527f416464726573733a2063616c6c20746f206e6f6e2d636f6e7472616374000000604482015260640161086f565b600080866001600160a01b03168587604051611ee39190612944565b60006040518083038185875af1925050503d8060008114611f20576040519150601f19603f3d011682016040523d82523d6000602084013e611f25565b606091505b5091509150611f35828286611f40565b979650505050505050565b60608315611f4f57508161165a565b825115611f5f5782518084602001fd5b8160405162461bcd60e51b815260040161086f91906120a0565b828054611f85906123ef565b90600052602060002090601f016020900481019282611fa75760008555611fed565b82601f10611fc057805160ff1916838001178555611fed565b82800160010185558215611fed579182015b82811115611fed578251825591602001919060010190611fd2565b50611ff9929150611ffd565b5090565b5b80821115611ff95760008155600101611ffe565b6001600160e01b03198116811461202857600080fd5b50565b60006020828403121561203d57600080fd5b813561165a81612012565b60005b8381101561206357818101518382015260200161204b565b8381111561150f5750506000910152565b6000815180845261208c816020860160208601612048565b601f01601f19169290920160200192915050565b60208152600061165a6020830184612074565b6000602082840312156120c557600080fd5b5035919050565b6001600160a01b038116811461202857600080fd5b600080604083850312156120f457600080fd5b82356120ff816120cc565b946020939093013593505050565b8035612118816120cc565b919050565b60006020828403121561212f57600080fd5b813561165a816120cc565b60008060006060848603121561214f57600080fd5b833561215a816120cc565b9250602084013561216a816120cc565b929592945050506040919091013590565b6000806020838503121561218e57600080fd5b823567ffffffffffffffff808211156121a657600080fd5b818501915085601f8301126121ba57600080fd5b8135818111156121c957600080fd5b8660208260051b85010111156121de57600080fd5b60209290920196919550909350505050565b6000806040838503121561220357600080fd5b823561220e816120cc565b9150602083013561221e816120cc565b809150509250929050565b6000806020838503121561223c57600080fd5b823567ffffffffffffffff8082111561225457600080fd5b818501915085601f83011261226857600080fd5b81358181111561227757600080fd5b8660208285010111156121de57600080fd5b801515811461202857600080fd5b803561211881612289565b600080604083850312156122b557600080fd5b82356122c0816120cc565b9150602083013561221e81612289565b634e487b7160e01b600052604160045260246000fd5b604051601f8201601f1916810167ffffffffffffffff8111828210171561230f5761230f6122d0565b604052919050565b600067ffffffffffffffff831115612331576123316122d0565b612344601f8401601f19166020016122e6565b905082815283838301111561235857600080fd5b828260208301376000602084830101529392505050565b6000806000806080858703121561238557600080fd5b8435612390816120cc565b935060208501356123a0816120cc565b925060408501359150606085013567ffffffffffffffff8111156123c357600080fd5b8501601f810187136123d457600080fd5b6123e387823560208401612317565b91505092959194509250565b600181811c9082168061240357607f821691505b6020821081141561242457634e487b7160e01b600052602260045260246000fd5b50919050565b634e487b7160e01b600052601160045260246000fd5b600082198211156124535761245361242a565b500190565b600060001982141561246c5761246c61242a565b5060010190565b60208082526026908201527f5061796d656e7453706c69747465723a206163636f756e7420686173206e6f2060408201526573686172657360d01b606082015260800190565b6020808252602b908201527f5061796d656e7453706c69747465723a206163636f756e74206973206e6f742060408201526a191d59481c185e5b595b9d60aa1b606082015260800190565b60006020828403121561251657600080fd5b815161165a81612012565b60208082526010908201526f155394d0519157d49150d2541251539560821b604082015260600190565b60006020828403121561255d57600080fd5b5051919050565b600067ffffffffffffffff82111561257e5761257e6122d0565b5060051b60200190565b600082601f83011261259957600080fd5b813560206125ae6125a983612564565b6122e6565b82815260059290921b840181019181810190868411156125cd57600080fd5b8286015b848110156125f15780356125e4816120cc565b83529183019183016125d1565b509695505050505050565b600082601f83011261260d57600080fd5b8135602061261d6125a983612564565b82815260059290921b8401810191818101908684111561263c57600080fd5b8286015b848110156125f15780358352918301918301612640565b600082601f83011261266857600080fd5b61165a83833560208501612317565b6000806000806000806000806000806101408b8d03121561269757600080fd5b8a3567ffffffffffffffff808211156126af57600080fd5b6126bb8e838f01612588565b9b5060208d01359150808211156126d157600080fd5b6126dd8e838f016125fc565b9a5060408d01359150808211156126f357600080fd5b6126ff8e838f01612657565b995060608d013591508082111561271557600080fd5b6127218e838f01612657565b985060808d013591508082111561273757600080fd5b506127448d828e01612657565b96505061275360a08c01612297565b945061276160c08c0161210d565b935060e08b013592506101008b013591506101208b013590509295989b9194979a5092959850565b634e487b7160e01b600052603260045260246000fd5b6001600160a01b03858116825284166020820152604081018390526080606082018190526000906127d290830184612074565b9695505050505050565b600081516127ee818560208601612048565b9290920192915050565b600080845481600182811c91508083168061281457607f831692505b602080841082141561283457634e487b7160e01b86526022600452602486fd5b818015612848576001811461285957612886565b60ff19861689528489019650612886565b60008b81526020902060005b8681101561287e5781548b820152908501908301612865565b505084890196505b5050505050506128aa61289982866127dc565b64173539b7b760d91b815260050190565b95945050505050565b60008160001904831182151516156128cd576128cd61242a565b500290565b634e487b7160e01b600052601260045260246000fd5b6000826128f7576128f76128d2565b500490565b60008282101561290e5761290e61242a565b500390565b600082612922576129226128d2565b500690565b60006020828403121561293957600080fd5b815161165a81612289565b60008251612956818460208701612048565b919091019291505056fea26469706673582212208ca9a129a09f6579417dc1bf69d1cdafa36ebda378cbcf8123e3314461dd5a4464736f6c634300080b0033",
  "immutableReferences": {},
  "source": "pragma solidity ^0.8.0;\n\n/**\n * @dev Provides information about the current execution context, including the\n * sender of the transaction and its data. While these are generally available\n * via msg.sender and msg.data, they should not be accessed in such a direct\n * manner, since when dealing with meta-transactions the account sending and\n * paying for execution may not be the actual sender (as far as an application\n * is concerned).\n *\n * This contract is only required for intermediate, library-like contracts.\n */\nabstract contract Context {\n    function _msgSender() internal view virtual returns (address) {\n        return msg.sender;\n    }\n\n    function _msgData() internal view virtual returns (bytes calldata) {\n        return msg.data;\n    }\n}\n\n// File: @openzeppelin/contracts/utils/Address.sol\n\n\n\npragma solidity ^0.8.0;\n\n/**\n * @dev Collection of functions related to the address type\n */\nlibrary Address {\n    /**\n     * @dev Returns true if `account` is a contract.\n     *\n     * [IMPORTANT]\n     * ====\n     * It is unsafe to assume that an address for which this function returns\n     * false is an externally-owned account (EOA) and not a contract.\n     *\n     * Among others, `isContract` will return false for the following\n     * types of addresses:\n     *\n     *  - an externally-owned account\n     *  - a contract in construction\n     *  - an address where a contract will be created\n     *  - an address where a contract lived, but was destroyed\n     * ====\n     */\n    function isContract(address account) internal view returns (bool) {\n        // This method relies on extcodesize, which returns 0 for contracts in\n        // construction, since the code is only stored at the end of the\n        // constructor execution.\n\n        uint256 size;\n        assembly {\n            size := extcodesize(account)\n        }\n        return size > 0;\n    }\n\n    /**\n     * @dev Replacement for Solidity's `transfer`: sends `amount` wei to\n     * `recipient`, forwarding all available gas and reverting on errors.\n     *\n     * https://eips.ethereum.org/EIPS/eip-1884[EIP1884] increases the gas cost\n     * of certain opcodes, possibly making contracts go over the 2300 gas limit\n     * imposed by `transfer`, making them unable to receive funds via\n     * `transfer`. {sendValue} removes this limitation.\n     *\n     * https://diligence.consensys.net/posts/2019/09/stop-using-soliditys-transfer-now/[Learn more].\n     *\n     * IMPORTANT: because control is transferred to `recipient`, care must be\n     * taken to not create reentrancy vulnerabilities. Consider using\n     * {ReentrancyGuard} or the\n     * https://solidity.readthedocs.io/en/v0.5.11/security-considerations.html#use-the-checks-effects-interactions-pattern[checks-effects-interactions pattern].\n     */\n    function sendValue(address payable recipient, uint256 amount) internal {\n        require(address(this).balance >= amount, \"Address: insufficient balance\");\n\n        (bool success, ) = recipient.call{value: amount}(\"\");\n        require(success, \"Address: unable to send value, recipient may have reverted\");\n    }\n\n    /**\n     * @dev Performs a Solidity function call using a low level `call`. A\n     * plain `call` is an unsafe replacement for a function call: use this\n     * function instead.\n     *\n     * If `target` reverts with a revert reason, it is bubbled up by this\n     * function (like regular Solidity function calls).\n     *\n     * Returns the raw returned data. To convert to the expected return value,\n     * use https://solidity.readthedocs.io/en/latest/units-and-global-variables.html?highlight=abi.decode#abi-encoding-and-decoding-functions[`abi.decode`].\n     *\n     * Requirements:\n     *\n     * - `target` must be a contract.\n     * - calling `target` with `data` must not revert.\n     *\n     * _Available since v3.1._\n     */\n    function functionCall(address target, bytes memory data) internal returns (bytes memory) {\n        return functionCall(target, data, \"Address: low-level call failed\");\n    }\n\n    /**\n     * @dev Same as {xref-Address-functionCall-address-bytes-}[`functionCall`], but with\n     * `errorMessage` as a fallback revert reason when `target` reverts.\n     *\n     * _Available since v3.1._\n     */\n    function functionCall(\n        address target,\n        bytes memory data,\n        string memory errorMessage\n    ) internal returns (bytes memory) {\n        return functionCallWithValue(target, data, 0, errorMessage);\n    }\n\n    /**\n     * @dev Same as {xref-Address-functionCall-address-bytes-}[`functionCall`],\n     * but also transferring `value` wei to `target`.\n     *\n     * Requirements:\n     *\n     * - the calling contract must have an ETH balance of at least `value`.\n     * - the called Solidity function must be `payable`.\n     *\n     * _Available since v3.1._\n     */\n    function functionCallWithValue(\n        address target,\n        bytes memory data,\n        uint256 value\n    ) internal returns (bytes memory) {\n        return functionCallWithValue(target, data, value, \"Address: low-level call with value failed\");\n    }\n\n    /**\n     * @dev Same as {xref-Address-functionCallWithValue-address-bytes-uint256-}[`functionCallWithValue`], but\n     * with `errorMessage` as a fallback revert reason when `target` reverts.\n     *\n     * _Available since v3.1._\n     */\n    function functionCallWithValue(\n        address target,\n        bytes memory data,\n        uint256 value,\n        string memory errorMessage\n    ) internal returns (bytes memory) {\n        require(address(this).balance >= value, \"Address: insufficient balance for call\");\n        require(isContract(target), \"Address: call to non-contract\");\n\n        (bool success, bytes memory returndata) = target.call{value: value}(data);\n        return verifyCallResult(success, returndata, errorMessage);\n    }\n\n    /**\n     * @dev Same as {xref-Address-functionCall-address-bytes-}[`functionCall`],\n     * but performing a static call.\n     *\n     * _Available since v3.3._\n     */\n    function functionStaticCall(address target, bytes memory data) internal view returns (bytes memory) {\n        return functionStaticCall(target, data, \"Address: low-level static call failed\");\n    }\n\n    /**\n     * @dev Same as {xref-Address-functionCall-address-bytes-string-}[`functionCall`],\n     * but performing a static call.\n     *\n     * _Available since v3.3._\n     */\n    function functionStaticCall(\n        address target,\n        bytes memory data,\n        string memory errorMessage\n    ) internal view returns (bytes memory) {\n        require(isContract(target), \"Address: static call to non-contract\");\n\n        (bool success, bytes memory returndata) = target.staticcall(data);\n        return verifyCallResult(success, returndata, errorMessage);\n    }\n\n    /**\n     * @dev Same as {xref-Address-functionCall-address-bytes-}[`functionCall`],\n     * but performing a delegate call.\n     *\n     * _Available since v3.4._\n     */\n    function functionDelegateCall(address target, bytes memory data) internal returns (bytes memory) {\n        return functionDelegateCall(target, data, \"Address: low-level delegate call failed\");\n    }\n\n    /**\n     * @dev Same as {xref-Address-functionCall-address-bytes-string-}[`functionCall`],\n     * but performing a delegate call.\n     *\n     * _Available since v3.4._\n     */\n    function functionDelegateCall(\n        address target,\n        bytes memory data,\n        string memory errorMessage\n    ) internal returns (bytes memory) {\n        require(isContract(target), \"Address: delegate call to non-contract\");\n\n        (bool success, bytes memory returndata) = target.delegatecall(data);\n        return verifyCallResult(success, returndata, errorMessage);\n    }\n\n    /**\n     * @dev Tool to verifies that a low level call was successful, and revert if it wasn't, either by bubbling the\n     * revert reason using the provided one.\n     *\n     * _Available since v4.3._\n     */\n    function verifyCallResult(\n        bool success,\n        bytes memory returndata,\n        string memory errorMessage\n    ) internal pure returns (bytes memory) {\n        if (success) {\n            return returndata;\n        } else {\n            // Look for revert reason and bubble it up if present\n            if (returndata.length > 0) {\n                // The easiest way to bubble the revert reason is using memory via assembly\n\n                assembly {\n                    let returndata_size := mload(returndata)\n                    revert(add(32, returndata), returndata_size)\n                }\n            } else {\n                revert(errorMessage);\n            }\n        }\n    }\n}\n\n// File: @openzeppelin/contracts/token/ERC20/IERC20.sol\n\n\n\npragma solidity ^0.8.0;\n\n/**\n * @dev Interface of the ERC20 standard as defined in the EIP.\n */\ninterface IERC20 {\n    /**\n     * @dev Returns the amount of tokens in existence.\n     */\n    function totalSupply() external view returns (uint256);\n\n    /**\n     * @dev Returns the amount of tokens owned by `account`.\n     */\n    function balanceOf(address account) external view returns (uint256);\n\n    /**\n     * @dev Moves `amount` tokens from the caller's account to `recipient`.\n     *\n     * Returns a boolean value indicating whether the operation succeeded.\n     *\n     * Emits a {Transfer} event.\n     */\n    function transfer(address recipient, uint256 amount) external returns (bool);\n\n    /**\n     * @dev Returns the remaining number of tokens that `spender` will be\n     * allowed to spend on behalf of `owner` through {transferFrom}. This is\n     * zero by default.\n     *\n     * This value changes when {approve} or {transferFrom} are called.\n     */\n    function allowance(address owner, address spender) external view returns (uint256);\n\n    /**\n     * @dev Sets `amount` as the allowance of `spender` over the caller's tokens.\n     *\n     * Returns a boolean value indicating whether the operation succeeded.\n     *\n     * IMPORTANT: Beware that changing an allowance with this method brings the risk\n     * that someone may use both the old and the new allowance by unfortunate\n     * transaction ordering. One possible solution to mitigate this race\n     * condition is to first reduce the spender's allowance to 0 and set the\n     * desired value afterwards:\n     * https://github.com/ethereum/EIPs/issues/20#issuecomment-263524729\n     *\n     * Emits an {Approval} event.\n     */\n    function approve(address spender, uint256 amount) external returns (bool);\n\n    /**\n     * @dev Moves `amount` tokens from `sender` to `recipient` using the\n     * allowance mechanism. `amount` is then deducted from the caller's\n     * allowance.\n     *\n     * Returns a boolean value indicating whether the operation succeeded.\n     *\n     * Emits a {Transfer} event.\n     */\n    function transferFrom(\n        address sender,\n        address recipient,\n        uint256 amount\n    ) external returns (bool);\n\n    /**\n     * @dev Emitted when `value` tokens are moved from one account (`from`) to\n     * another (`to`).\n     *\n     * Note that `value` may be zero.\n     */\n    event Transfer(address indexed from, address indexed to, uint256 value);\n\n    /**\n     * @dev Emitted when the allowance of a `spender` for an `owner` is set by\n     * a call to {approve}. `value` is the new allowance.\n     */\n    event Approval(address indexed owner, address indexed spender, uint256 value);\n}\n\n// File: @openzeppelin/contracts/token/ERC20/utils/SafeERC20.sol\n\n\n// OpenZeppelin Contracts v4.4.1 (token/ERC20/utils/SafeERC20.sol)\n\npragma solidity ^0.8.0;\n\n\n\n/**\n * @title SafeERC20\n * @dev Wrappers around ERC20 operations that throw on failure (when the token\n * contract returns false). Tokens that return no value (and instead revert or\n * throw on failure) are also supported, non-reverting calls are assumed to be\n * successful.\n * To use this library you can add a `using SafeERC20 for IERC20;` statement to your contract,\n * which allows you to call the safe operations as `token.safeTransfer(...)`, etc.\n */\nlibrary SafeERC20 {\n    using Address for address;\n\n    function safeTransfer(\n        IERC20 token,\n        address to,\n        uint256 value\n    ) internal {\n        _callOptionalReturn(token, abi.encodeWithSelector(token.transfer.selector, to, value));\n    }\n\n    function safeTransferFrom(\n        IERC20 token,\n        address from,\n        address to,\n        uint256 value\n    ) internal {\n        _callOptionalReturn(token, abi.encodeWithSelector(token.transferFrom.selector, from, to, value));\n    }\n\n    /**\n     * @dev Deprecated. This function has issues similar to the ones found in\n     * {IERC20-approve}, and its usage is discouraged.\n     *\n     * Whenever possible, use {safeIncreaseAllowance} and\n     * {safeDecreaseAllowance} instead.\n     */\n    function safeApprove(\n        IERC20 token,\n        address spender,\n        uint256 value\n    ) internal {\n        // safeApprove should only be called when setting an initial allowance,\n        // or when resetting it to zero. To increase and decrease it, use\n        // 'safeIncreaseAllowance' and 'safeDecreaseAllowance'\n        require(\n            (value == 0) || (token.allowance(address(this), spender) == 0),\n            \"SafeERC20: approve from non-zero to non-zero allowance\"\n        );\n        _callOptionalReturn(token, abi.encodeWithSelector(token.approve.selector, spender, value));\n    }\n\n    function safeIncreaseAllowance(\n        IERC20 token,\n        address spender,\n        uint256 value\n    ) internal {\n        uint256 newAllowance = token.allowance(address(this), spender) + value;\n        _callOptionalReturn(token, abi.encodeWithSelector(token.approve.selector, spender, newAllowance));\n    }\n\n    function safeDecreaseAllowance(\n        IERC20 token,\n        address spender,\n        uint256 value\n    ) internal {\n        unchecked {\n            uint256 oldAllowance = token.allowance(address(this), spender);\n            require(oldAllowance >= value, \"SafeERC20: decreased allowance below zero\");\n            uint256 newAllowance = oldAllowance - value;\n            _callOptionalReturn(token, abi.encodeWithSelector(token.approve.selector, spender, newAllowance));\n        }\n    }\n\n    /**\n     * @dev Imitates a Solidity high-level call (i.e. a regular function call to a contract), relaxing the requirement\n     * on the return value: the return value is optional (but if data is returned, it must not be false).\n     * @param token The token targeted by the call.\n     * @param data The call data (encoded using abi.encode or one of its variants).\n     */\n    function _callOptionalReturn(IERC20 token, bytes memory data) private {\n        // We need to perform a low level call here, to bypass Solidity's return data size checking mechanism, since\n        // we're implementing it ourselves. We use {Address.functionCall} to perform this call, which verifies that\n        // the target address contains contract code and also asserts for success in the low-level call.\n\n        bytes memory returndata = address(token).functionCall(data, \"SafeERC20: low-level call failed\");\n        if (returndata.length > 0) {\n            // Return data is optional\n            require(abi.decode(returndata, (bool)), \"SafeERC20: ERC20 operation did not succeed\");\n        }\n    }\n}\n\n// File: @openzeppelin/contracts/utils/cryptography/MerkleProof.sol\n\n\n// OpenZeppelin Contracts v4.4.1 (utils/cryptography/MerkleProof.sol)\n\npragma solidity ^0.8.0;\n\n/**\n * @dev These functions deal with verification of Merkle Trees proofs.\n *\n * The proofs can be generated using the JavaScript library\n * https://github.com/miguelmota/merkletreejs[merkletreejs].\n * Note: the hashing algorithm should be keccak256 and pair sorting should be enabled.\n *\n * See `test/utils/cryptography/MerkleProof.test.js` for some examples.\n */\nlibrary MerkleProof {\n    /**\n     * @dev Returns true if a `leaf` can be proved to be a part of a Merkle tree\n     * defined by `root`. For this, a `proof` must be provided, containing\n     * sibling hashes on the branch from the leaf to the root of the tree. Each\n     * pair of leaves and each pair of pre-images are assumed to be sorted.\n     */\n    function verify(\n        bytes32[] memory proof,\n        bytes32 root,\n        bytes32 leaf\n    ) internal pure returns (bool) {\n        return processProof(proof, leaf) == root;\n    }\n\n    /**\n     * @dev Returns the rebuilt hash obtained by traversing a Merklee tree up\n     * from `leaf` using `proof`. A `proof` is valid if and only if the rebuilt\n     * hash matches the root of the tree. When processing the proof, the pairs\n     * of leafs & pre-images are assumed to be sorted.\n     *\n     * _Available since v4.4._\n     */\n    function processProof(bytes32[] memory proof, bytes32 leaf) internal pure returns (bytes32) {\n        bytes32 computedHash = leaf;\n        for (uint256 i = 0; i < proof.length; i++) {\n            bytes32 proofElement = proof[i];\n            if (computedHash <= proofElement) {\n                // Hash(current computed hash + current element of the proof)\n                computedHash = keccak256(abi.encodePacked(computedHash, proofElement));\n            } else {\n                // Hash(current element of the proof + current computed hash)\n                computedHash = keccak256(abi.encodePacked(proofElement, computedHash));\n            }\n        }\n        return computedHash;\n    }\n}\n\n// File: @openzeppelin/contracts/utils/Strings.sol\n\n\n\npragma solidity ^0.8.0;\n\n/**\n * @dev String operations.\n */\nlibrary Strings {\n    bytes16 private constant _HEX_SYMBOLS = \"0123456789abcdef\";\n\n    /**\n     * @dev Converts a `uint256` to its ASCII `string` decimal representation.\n     */\n    function toString(uint256 value) internal pure returns (string memory) {\n        // Inspired by OraclizeAPI's implementation - MIT licence\n        // https://github.com/oraclize/ethereum-api/blob/b42146b063c7d6ee1358846c198246239e9360e8/oraclizeAPI_0.4.25.sol\n\n        if (value == 0) {\n            return \"0\";\n        }\n        uint256 temp = value;\n        uint256 digits;\n        while (temp != 0) {\n            digits++;\n            temp /= 10;\n        }\n        bytes memory buffer = new bytes(digits);\n        while (value != 0) {\n            digits -= 1;\n            buffer[digits] = bytes1(uint8(48 + uint256(value % 10)));\n            value /= 10;\n        }\n        return string(buffer);\n    }\n\n    /**\n     * @dev Converts a `uint256` to its ASCII `string` hexadecimal representation.\n     */\n    function toHexString(uint256 value) internal pure returns (string memory) {\n        if (value == 0) {\n            return \"0x00\";\n        }\n        uint256 temp = value;\n        uint256 length = 0;\n        while (temp != 0) {\n            length++;\n            temp >>= 8;\n        }\n        return toHexString(value, length);\n    }\n\n    /**\n     * @dev Converts a `uint256` to its ASCII `string` hexadecimal representation with fixed length.\n     */\n    function toHexString(uint256 value, uint256 length) internal pure returns (string memory) {\n        bytes memory buffer = new bytes(2 * length + 2);\n        buffer[0] = \"0\";\n        buffer[1] = \"x\";\n        for (uint256 i = 2 * length + 1; i > 1; --i) {\n            buffer[i] = _HEX_SYMBOLS[value & 0xf];\n            value >>= 4;\n        }\n        require(value == 0, \"Strings: hex length insufficient\");\n        return string(buffer);\n    }\n}\n\n// File: contracts/ERC721.sol\n\n\npragma solidity >=0.8.0;\n\n/// @notice Modern, minimalist, and gas efficient ERC-721 implementation.\n/// @author Solmate (https://github.com/Rari-Capital/solmate/blob/main/src/tokens/ERC721.sol)\n/// @dev Note that balanceOf does not revert if passed the zero address, in defiance of the ERC.\nabstract contract ERC721 {\n    /*///////////////////////////////////////////////////////////////\n                                 EVENTS\n    //////////////////////////////////////////////////////////////*/\n\n    event Transfer(address indexed from, address indexed to, uint256 indexed id);\n\n    event Approval(address indexed owner, address indexed spender, uint256 indexed id);\n\n    event ApprovalForAll(address indexed owner, address indexed operator, bool approved);\n\n    /*///////////////////////////////////////////////////////////////\n                          METADATA STORAGE/LOGIC\n    //////////////////////////////////////////////////////////////*/\n\n    string public name;\n\n    string public symbol;\n\n    function tokenURI(uint256 id) public view virtual returns (string memory);\n\n    /*///////////////////////////////////////////////////////////////\n                            ERC721 STORAGE                        \n    //////////////////////////////////////////////////////////////*/\n\n    mapping(address => uint256) public balanceOf;\n\n    mapping(uint256 => address) public ownerOf;\n\n    mapping(uint256 => address) public getApproved;\n\n    mapping(address => mapping(address => bool)) public isApprovedForAll;\n\n    /*///////////////////////////////////////////////////////////////\n                              CONSTRUCTOR\n    //////////////////////////////////////////////////////////////*/\n\n    constructor(string memory _name, string memory _symbol) {\n        name = _name;\n        symbol = _symbol;\n    }\n\n    /*///////////////////////////////////////////////////////////////\n                              ERC721 LOGIC\n    //////////////////////////////////////////////////////////////*/\n\n    function approve(address spender, uint256 id) public virtual {\n        address owner = ownerOf[id];\n\n        require(msg.sender == owner || isApprovedForAll[owner][msg.sender], \"NOT_AUTHORIZED\");\n\n        getApproved[id] = spender;\n\n        emit Approval(owner, spender, id);\n    }\n\n    function setApprovalForAll(address operator, bool approved) public virtual {\n        isApprovedForAll[msg.sender][operator] = approved;\n\n        emit ApprovalForAll(msg.sender, operator, approved);\n    }\n\n    function transferFrom(\n        address from,\n        address to,\n        uint256 id\n    ) public virtual {\n        require(from == ownerOf[id], \"WRONG_FROM\");\n\n        require(to != address(0), \"INVALID_RECIPIENT\");\n\n        require(\n            msg.sender == from || msg.sender == getApproved[id] || isApprovedForAll[from][msg.sender],\n            \"NOT_AUTHORIZED\"\n        );\n\n        // Underflow of the sender's balance is impossible because we check for\n        // ownership above and the recipient's balance can't realistically overflow.\n        unchecked {\n            balanceOf[from]--;\n\n            balanceOf[to]++;\n        }\n\n        ownerOf[id] = to;\n\n        delete getApproved[id];\n\n        emit Transfer(from, to, id);\n    }\n\n    function safeTransferFrom(\n        address from,\n        address to,\n        uint256 id\n    ) public virtual {\n        transferFrom(from, to, id);\n\n        require(\n            to.code.length == 0 ||\n                ERC721TokenReceiver(to).onERC721Received(msg.sender, from, id, \"\") ==\n                ERC721TokenReceiver.onERC721Received.selector,\n            \"UNSAFE_RECIPIENT\"\n        );\n    }\n\n    function safeTransferFrom(\n        address from,\n        address to,\n        uint256 id,\n        bytes memory data\n    ) public virtual {\n        transferFrom(from, to, id);\n\n        require(\n            to.code.length == 0 ||\n                ERC721TokenReceiver(to).onERC721Received(msg.sender, from, id, data) ==\n                ERC721TokenReceiver.onERC721Received.selector,\n            \"UNSAFE_RECIPIENT\"\n        );\n    }\n\n    /*///////////////////////////////////////////////////////////////\n                              ERC165 LOGIC\n    //////////////////////////////////////////////////////////////*/\n\n    function supportsInterface(bytes4 interfaceId) public pure virtual returns (bool) {\n        return\n            interfaceId == 0x01ffc9a7 || // ERC165 Interface ID for ERC165\n            interfaceId == 0x80ac58cd || // ERC165 Interface ID for ERC721\n            interfaceId == 0x5b5e139f; // ERC165 Interface ID for ERC721Metadata\n    }\n\n    /*///////////////////////////////////////////////////////////////\n                       INTERNAL MINT/BURN LOGIC\n    //////////////////////////////////////////////////////////////*/\n\n    function _mint(address to, uint256 id) internal virtual {\n        require(to != address(0), \"INVALID_RECIPIENT\");\n\n        require(ownerOf[id] == address(0), \"ALREADY_MINTED\");\n\n        // Counter overflow is incredibly unrealistic.\n        unchecked {\n            balanceOf[to]++;\n        }\n\n        ownerOf[id] = to;\n\n        emit Transfer(address(0), to, id);\n    }\n\n    function _burn(uint256 id) internal virtual {\n        address owner = ownerOf[id];\n\n        require(ownerOf[id] != address(0), \"NOT_MINTED\");\n\n        // Ownership check above ensures no underflow.\n        unchecked {\n            balanceOf[owner]--;\n        }\n\n        delete ownerOf[id];\n\n        delete getApproved[id];\n\n        emit Transfer(owner, address(0), id);\n    }\n\n    /*///////////////////////////////////////////////////////////////\n                       INTERNAL SAFE MINT LOGIC\n    //////////////////////////////////////////////////////////////*/\n\n    function _safeMint(address to, uint256 id) internal virtual {\n        _mint(to, id);\n\n        require(\n            to.code.length == 0 ||\n                ERC721TokenReceiver(to).onERC721Received(msg.sender, address(0), id, \"\") ==\n                ERC721TokenReceiver.onERC721Received.selector,\n            \"UNSAFE_RECIPIENT\"\n        );\n    }\n\n    function _safeMint(\n        address to,\n        uint256 id,\n        bytes memory data\n    ) internal virtual {\n        _mint(to, id);\n\n        require(\n            to.code.length == 0 ||\n                ERC721TokenReceiver(to).onERC721Received(msg.sender, address(0), id, data) ==\n                ERC721TokenReceiver.onERC721Received.selector,\n            \"UNSAFE_RECIPIENT\"\n        );\n    }\n}\ninterface ERC721TokenReceiver {\n    function onERC721Received(\n        address operator,\n        address from,\n        uint256 id,\n        bytes calldata data\n    ) external returns (bytes4);\n}\n\ncontract PaymentSplitter {\n    event PayeeAdded(address account, uint256 shares);\n    event PaymentReleased(address to, uint256 amount);\n    event ERC20PaymentReleased(IERC20 indexed token, address to, uint256 amount);\n    event PaymentReceived(address from, uint256 amount);\n\n\n    uint256 private _totalShares;\n    uint256 private _totalReleased;\n\n    mapping(address => uint256) private _shares;\n    mapping(address => uint256) private _released;\n    address[] private _payees;\n\n    mapping(IERC20 => uint256) private _erc20TotalReleased;\n    mapping(IERC20 => mapping(address => uint256)) private _erc20Released;\n\n\n     receive() external payable virtual {\n        emit PaymentReceived(msg.sender, msg.value);\n    }\n\n    function totalShares() public view returns (uint256) {\n        return _totalShares;\n    }\n\n    function totalReleased() public view returns (uint256) {\n        return _totalReleased;\n    }\n\n    function totalReleased(IERC20 token) public view returns (uint256) {\n        return _erc20TotalReleased[token];\n    }\n\n    function shares(address account) public view returns (uint256) {\n        return _shares[account];\n    }\n\n    function released(address account) public view returns (uint256) {\n        return _released[account];\n    }\n\n    function released(IERC20 token, address account) public view returns (uint256) {\n        return _erc20Released[token][account];\n    }\n\n    function payee(uint256 index) public view returns (address) {\n        return _payees[index];\n    }\n\n    function release(address payable account) public virtual {\n        require(_shares[account] > 0, \"PaymentSplitter: account has no shares\");\n\n        uint256 totalReceived = address(this).balance + totalReleased();\n        uint256 payment = _pendingPayment(account, totalReceived, released(account));\n\n        require(payment != 0, \"PaymentSplitter: account is not due payment\");\n\n        _released[account] += payment;\n        _totalReleased += payment;\n\n        Address.sendValue(account, payment);\n        emit PaymentReleased(account, payment);\n    }\n\n    function release(IERC20 token, address account) public virtual {\n        require(_shares[account] > 0, \"PaymentSplitter: account has no shares\");\n\n        uint256 totalReceived = token.balanceOf(address(this)) + totalReleased(token);\n        uint256 payment = _pendingPayment(account, totalReceived, released(token, account));\n\n        require(payment != 0, \"PaymentSplitter: account is not due payment\");\n\n        _erc20Released[token][account] += payment;\n        _erc20TotalReleased[token] += payment;\n\n        SafeERC20.safeTransfer(token, account, payment);\n        emit ERC20PaymentReleased(token, account, payment);\n    }\n\n    function _pendingPayment(\n        address account,\n        uint256 totalReceived,\n        uint256 alreadyReleased\n    ) private view returns (uint256) {\n        return (totalReceived * _shares[account]) / _totalShares - alreadyReleased;\n    }\n\n    function _addPayee(address account, uint256 shares_) internal {\n        require(account != address(0), \"PaymentSplitter: account is the zero address\");\n        require(shares_ > 0, \"PaymentSplitter: shares are 0\");\n        require(_shares[account] == 0, \"PaymentSplitter: account already has shares\");\n\n        _payees.push(account);\n        _shares[account] = shares_;\n        _totalShares = _totalShares + shares_;\n        emit PayeeAdded(account, shares_);\n    }\n}\n\npragma solidity >=0.8.4;\n\ncontract LaunchMyNFT is ERC721, PaymentSplitter {\n    uint256 public totalSupply;\n    uint256 public cost;\n    uint256 public whitelistCost;\n    uint256 public maxSupply;\n    address public owner;\n    string private baseURI;\n    bytes32 private merkleRoot;\n    bool public whitelistActive;\n    bool initialized;\n    \n    mapping(address => bool) public whitelistClaimed;\n\n    error WhitelistActive(string msg);\n    error WhitelistInactive(string msg);\n    error SoldOut(string msg);\n\terror InsufficientFunds(string msg);\n\terror AlreadyClaimed(string msg);\n\terror InvalidProof(string msg);\n\terror NotOwner(string msg);\n    error AlreadyInitialized(string msg);\n\n    event Minted(address indexed owner, string tokenURI, uint256 indexed mintTime);\n    \n    constructor() ERC721(\"\", \"\") {\n        owner = tx.origin;\n    }\n\n    function init(bytes calldata data) external {\n        if (initialized) revert AlreadyInitialized(\"Already initialized\");\n        initialized = true;\n        (\n            address[] memory payees_,\n            uint256[] memory shares_,\n            string memory _name, \n            string memory _symbol, \n            string memory _baseURI,\n            bool _whitelistActive, \n            address _owner,\n            uint256 _cost, \n            uint256 _whitelistCost,\n            uint256 _maxSupply\n        ) = abi.decode(data, (address[], uint256[], string, string, string, bool, address, uint256, uint256, uint256));\n            _paymentSplitter(payees_, shares_);\n            owner = _owner;\n            name = _name;\n            symbol = _symbol;\n            cost = _cost;\n            maxSupply = _maxSupply;\n            baseURI = _baseURI;\n            whitelistActive = _whitelistActive;\n\n            if (_whitelistActive) {\n                whitelistCost = _whitelistCost;\n            }\n    }\n\n    function setWhitelist(bytes32 _merkleRoot) external {\n\t\tif (msg.sender != owner) revert NotOwner(\"Not owner\");\n        merkleRoot = _merkleRoot;\n    }\n\n    function toggleWhitelist() external {\n        if (msg.sender != owner) revert NotOwner(\"Not owner\");\n        whitelistActive = !whitelistActive;\n    }\n\n    function mint() external payable {\n        if (whitelistActive) revert WhitelistActive(\"Whitelist active\");\n        if (totalSupply + 1 > maxSupply) revert SoldOut(\"Sold out\");\n\t\tif (msg.value != cost) revert InsufficientFunds(\"Insufficient funds\");\n        totalSupply++;\n        _safeMint(msg.sender, totalSupply);\n    }\n\n    function whitelistMint(bytes32[] calldata _merkleProof) external payable {\n        if (!whitelistActive) revert WhitelistInactive(\"Whitelist is inactive\");\n\t\tif (whitelistClaimed[msg.sender]) revert AlreadyClaimed(\"Already claimed\");\n   \t\tif (totalSupply + 1 > maxSupply) revert SoldOut(\"Sold out\");\n\t\tif (msg.value != whitelistCost) revert InsufficientFunds(\"Insufficient funds\");\n\n        bytes32 leaf = keccak256(abi.encodePacked(msg.sender));\n\n\t\tif (!MerkleProof.verify(_merkleProof, merkleRoot, leaf)) revert InvalidProof(\"Invalid proof\");\n\t\t//require(MerkleProof.verify(_merkleProof, merkleRoot, leaf), \"Invalid proof\");\n\n        whitelistClaimed[msg.sender] = true;\n        totalSupply++;\n        _safeMint(msg.sender, totalSupply);\n        emit Minted(msg.sender, tokenURI(totalSupply), block.timestamp);\n    }\n\n    function tokenURI(uint256 tokenId) public view override(ERC721) returns (string memory) {\n        return\n            string(\n                abi.encodePacked(\n                    baseURI,\n                    Strings.toString(tokenId),\n                    \".json\"\n                )\n            );\n    }\n\n    function _paymentSplitter(address[] memory _payees, uint256[] memory shares_) internal {\n        require(_payees.length == shares_.length, \"PaymentSplitter: payees and shares length mismatch\");\n        require(_payees.length > 0, \"PaymentSplitter: no payees\");\n\n        for (uint256 i = 0; i < _payees.length; i++) {\n            _addPayee(_payees[i], shares_[i]);\n        }\n    }\n}",
  "sourcePath": "/Users/kmo/Github/vesting/src/contracts/LMNFTBaseWhitelist.sol",
  "compiler": {
    "name": "solc",
    "version": "0.8.11+commit.d7f03943.Emscripten.clang"
  },
  "schemaVersion": "3.4.3",
  "updatedAt": "2022-02-11T16:30:52.380Z",
  "devdoc": {
    "kind": "dev",
    "methods": {},
    "version": 1
  },
  "userdoc": {
    "kind": "user",
    "methods": {},
    "version": 1
  }
}