{
  "contractName": "Test",
  "abi": [
    {
      "inputs": [],
      "stateMutability": "nonpayable",
      "type": "constructor"
    },
    {
      "anonymous": false,
      "inputs": [
        {
          "indexed": false,
          "internalType": "uint256",
          "name": "id",
          "type": "uint256"
        }
      ],
      "name": "Mint",
      "type": "event"
    },
    {
      "inputs": [
        {
          "internalType": "bytes32",
          "name": "root",
          "type": "bytes32"
        }
      ],
      "name": "setRoot",
      "outputs": [],
      "stateMutability": "nonpayable",
      "type": "function"
    },
    {
      "inputs": [
        {
          "internalType": "bytes32[]",
          "name": "proof",
          "type": "bytes32[]"
        },
        {
          "internalType": "bytes",
          "name": "data",
          "type": "bytes"
        },
        {
          "internalType": "bytes32",
          "name": "next",
          "type": "bytes32"
        }
      ],
      "name": "test",
      "outputs": [],
      "stateMutability": "nonpayable",
      "type": "function"
    }
  ],
  "bytecode": "0x608060405234801561001057600080fd5b50610389806100206000396000f3fe608060405234801561001057600080fd5b50600436106100365760003560e01c80636c2ebb8b1461003b578063dab5f34014610050575b600080fd5b61004e610049366004610202565b610063565b005b61004e61005e3660046102eb565b600055565b6000610071838501856102eb565b905061009785600054868660405161008a929190610304565b604051809103902061011a565b6100d75760405162461bcd60e51b815260206004820152600d60248201526c24a72b20a624a210282927a7a360991b604482015260640160405180910390fd5b6100e082600055565b6040518181527f07883703ed0e86588a40d76551c92f8a4b329e3bf19765e0e6749473c1a846659060200160405180910390a15050505050565b6000826101278584610130565b14949350505050565b600081815b845181101561019c57600085828151811061015257610152610314565b602002602001015190508083116101785760008381526020829052604090209250610189565b600081815260208490526040902092505b50806101948161032a565b915050610135565b509392505050565b634e487b7160e01b600052604160045260246000fd5b60008083601f8401126101cc57600080fd5b5081356001600160401b038111156101e357600080fd5b6020830191508360208285010111156101fb57600080fd5b9250929050565b6000806000806060858703121561021857600080fd5b84356001600160401b038082111561022f57600080fd5b818701915087601f83011261024357600080fd5b8135602082821115610257576102576101a4565b8160051b604051601f19603f8301168101818110868211171561027c5761027c6101a4565b6040529283528481018201928281018c85111561029857600080fd5b958301955b848710156102b4578635815295830195830161029d565b50985050880135925050808211156102cb57600080fd5b506102d8878288016101ba565b9598909750949560400135949350505050565b6000602082840312156102fd57600080fd5b5035919050565b8183823760009101908152919050565b634e487b7160e01b600052603260045260246000fd5b600060001982141561034c57634e487b7160e01b600052601160045260246000fd5b506001019056fea26469706673582212205761fcd113611dc66396ffc926a5e4d28bc4753608834fabefa6a06941ee7f4c64736f6c634300080b0033",
  "immutableReferences": {},
  "source": "pragma solidity ^0.8.11;\nimport \"@openzeppelin/contracts/utils/cryptography/MerkleProof.sol\";\n\ncontract Test {\n\n    bytes32 merkleRoot;\n    bytes32 nextRoot;\n\n    constructor() {\n        \n    }\n    event Mint(uint256 id);\n\n    function setRoot(bytes32 root) public {\n        merkleRoot = root;\n    }\n\n\n    function test(bytes32[] memory proof, bytes calldata data, bytes32 next) public {\n        uint256 node = abi.decode(data, (uint256));\n        require(MerkleProof.verify(proof, merkleRoot, keccak256(data)), \"INVALID PROOF\");\n        setRoot(next);\n        emit Mint(node);\n    }\n}",
  "sourcePath": "/Users/kmo/Github/vesting/src/contracts/Test.sol",
  "compiler": {
    "name": "solc",
    "version": "0.8.11+commit.d7f03943.Emscripten.clang"
  },
  "schemaVersion": "3.4.3",
  "updatedAt": "2022-02-15T19:21:16.080Z",
  "networkType": "ethereum",
  "devdoc": {
    "kind": "dev",
    "methods": {},
    "version": 1
  },
  "userdoc": {
    "kind": "user",
    "methods": {},
    "version": 1
  }
}