{
  "contractName": "Vesting",
  "abi": [
    {
      "inputs": [
        {
          "internalType": "address",
          "name": "_token",
          "type": "address"
        }
      ],
      "stateMutability": "nonpayable",
      "type": "constructor"
    },
    {
      "inputs": [],
      "name": "AlreadyClaimed",
      "type": "error"
    },
    {
      "inputs": [],
      "name": "InvalidProof",
      "type": "error"
    },
    {
      "anonymous": false,
      "inputs": [
        {
          "indexed": true,
          "internalType": "address",
          "name": "previousOwner",
          "type": "address"
        },
        {
          "indexed": true,
          "internalType": "address",
          "name": "newOwner",
          "type": "address"
        }
      ],
      "name": "OwnershipTransferred",
      "type": "event"
    },
    {
      "inputs": [],
      "name": "owner",
      "outputs": [
        {
          "internalType": "address",
          "name": "",
          "type": "address"
        }
      ],
      "stateMutability": "view",
      "type": "function",
      "constant": true
    },
    {
      "inputs": [],
      "name": "renounceOwnership",
      "outputs": [],
      "stateMutability": "nonpayable",
      "type": "function"
    },
    {
      "inputs": [
        {
          "internalType": "address",
          "name": "newOwner",
          "type": "address"
        }
      ],
      "name": "transferOwnership",
      "outputs": [],
      "stateMutability": "nonpayable",
      "type": "function"
    },
    {
      "inputs": [],
      "name": "vestingLength",
      "outputs": [
        {
          "internalType": "uint256",
          "name": "",
          "type": "uint256"
        }
      ],
      "stateMutability": "view",
      "type": "function",
      "constant": true
    },
    {
      "inputs": [],
      "name": "totalSupply",
      "outputs": [
        {
          "internalType": "uint256",
          "name": "",
          "type": "uint256"
        }
      ],
      "stateMutability": "view",
      "type": "function",
      "constant": true
    },
    {
      "inputs": [
        {
          "internalType": "bytes32",
          "name": "root",
          "type": "bytes32"
        }
      ],
      "name": "addMerkleData",
      "outputs": [],
      "stateMutability": "nonpayable",
      "type": "function"
    },
    {
      "inputs": [
        {
          "internalType": "uint256",
          "name": "sAmount",
          "type": "uint256"
        },
        {
          "internalType": "bytes32[]",
          "name": "proof",
          "type": "bytes32[]"
        }
      ],
      "name": "remainingBalance",
      "outputs": [
        {
          "internalType": "uint256",
          "name": "",
          "type": "uint256"
        }
      ],
      "stateMutability": "view",
      "type": "function",
      "constant": true
    },
    {
      "inputs": [
        {
          "internalType": "uint256",
          "name": "sAmount",
          "type": "uint256"
        },
        {
          "internalType": "bytes32[]",
          "name": "proof",
          "type": "bytes32[]"
        }
      ],
      "name": "claimable",
      "outputs": [
        {
          "internalType": "uint256",
          "name": "",
          "type": "uint256"
        }
      ],
      "stateMutability": "view",
      "type": "function",
      "constant": true
    },
    {
      "inputs": [
        {
          "internalType": "uint256",
          "name": "sAmount",
          "type": "uint256"
        },
        {
          "internalType": "bytes32[]",
          "name": "proof",
          "type": "bytes32[]"
        }
      ],
      "name": "claim",
      "outputs": [],
      "stateMutability": "nonpayable",
      "type": "function"
    },
    {
      "inputs": [],
      "name": "emergencyWithdraw",
      "outputs": [],
      "stateMutability": "nonpayable",
      "type": "function"
    }
  ],
  "bytecode": "0x608060405234801561001057600080fd5b50604051610dc8380380610dc883398101604081905261002f916100eb565b61003833610088565b600180556301e133806004819055426005819055610060916100d8602090811b61050b17901c565b600655600280546001600160a01b0319166001600160a01b039290921691909117905561013a565b600080546001600160a01b038381166001600160a01b0319831681178455604051919092169283917f8be0079c531659141344cd1fd0a4f28419497f9722a3daafe3b4186f6b6457e09190a35050565b60006100e48284610114565b9392505050565b6000602082840312156100fd57600080fd5b81516001600160a01b03811681146100e457600080fd5b6000821982111561013557634e487b7160e01b600052601160045260246000fd5b500190565b610c7f806101496000396000f3fe608060405234801561001057600080fd5b506004361061008e5760003560e01c806318160ddd146100935780632f52ebb7146100ae57806334981e56146100c357806359d80fb9146100d6578063715018a6146100e95780638da5cb5b146100f1578063b217f9d414610106578063db2e21bc1461010f578063ef6360b214610117578063f2fde38b1461012a575b600080fd5b61009b61013d565b6040519081526020015b60405180910390f35b6100c16100bc3660046109cf565b6101b4565b005b61009b6100d13660046109cf565b6102ab565b61009b6100e43660046109cf565b6102de565b6100c161032f565b6100f961036a565b6040516100a59190610a4d565b61009b60045481565b6100c1610379565b6100c1610125366004610a61565b610437565b6100c1610138366004610a7a565b61046b565b6002546040516370a0823160e01b81526000916001600160a01b0316906370a082319061016e903090600401610a4d565b602060405180830381865afa15801561018b573d6000803e3d6000fd5b505050506040513d601f19601f820116820180604052508101906101af9190610aa3565b905090565b6002600154141561020c5760405162461bcd60e51b815260206004820152601f60248201527f5265656e7472616e637947756172643a207265656e7472616e742063616c6c0060448201526064015b60405180910390fd5b600260015533600090815260076020526040902054831161024057604051630c8d9eab60e31b815260040160405180910390fd5b61024c33848484610520565b600061025833856105e0565b33600090815260076020526040902054909150610275908261050b565b336000818152600760205260409020919091556002546102a1916001600160a01b03909116908361067d565b5050600180555050565b60006102b933858585610520565b336000908152600760205260409020546102d49085906106d4565b90505b9392505050565b3360009081526007602052604081205484101561030e57604051630c8d9eab60e31b815260040160405180910390fd5b61031a33858585610520565b600061032633866105e0565b95945050505050565b3361033861036a565b6001600160a01b03161461035e5760405162461bcd60e51b815260040161020390610abc565b61036860006106e0565b565b6000546001600160a01b031690565b3361038261036a565b6001600160a01b0316146103a85760405162461bcd60e51b815260040161020390610abc565b6103686103b361036a565b6002546040516370a0823160e01b81526001600160a01b03909116906370a08231906103e3903090600401610a4d565b602060405180830381865afa158015610400573d6000803e3d6000fd5b505050506040513d601f19601f820116820180604052508101906104249190610aa3565b6002546001600160a01b0316919061067d565b3361044061036a565b6001600160a01b0316146104665760405162461bcd60e51b815260040161020390610abc565b600355565b3361047461036a565b6001600160a01b03161461049a5760405162461bcd60e51b815260040161020390610abc565b6001600160a01b0381166104ff5760405162461bcd60e51b815260206004820152602660248201527f4f776e61626c653a206e6577206f776e657220697320746865207a65726f206160448201526564647265737360d01b6064820152608401610203565b610508816106e0565b50565b60006105178284610b07565b90505b92915050565b6040516001600160601b0319606086901b1660208201526034810184905260009060540160405160208183030381529060405280519060200120905061059d838380806020026020016040519081016040528093929190818152602001838360200280828437600092019190915250506003549150849050610730565b6105d95760405162461bcd60e51b815260206004820152600d60248201526c24a72b20a624a210282927a7a360991b6044820152606401610203565b5050505050565b6000806105ec83610746565b90506000610605600554426106d490919063ffffffff16565b6001600160a01b0386166000908152600760205260408120549192509061063690610630848661075d565b906106d4565b6001600160a01b0387166000908152600760205260408120549192509061065e9087906106d4565b90508082111561067357935061051a92505050565b5095945050505050565b604080516001600160a01b038416602482015260448082018490528251808303909101815260649091019091526020810180516001600160e01b031663a9059cbb60e01b1790526106cf908490610769565b505050565b60006105178284610b1f565b600080546001600160a01b038381166001600160a01b0319831681178455604051919092169283917f8be0079c531659141344cd1fd0a4f28419497f9722a3daafe3b4186f6b6457e09190a35050565b60008261073d858461083b565b14949350505050565b600061051a600454836108af90919063ffffffff16565b60006105178284610b36565b60006107be826040518060400160405280602081526020017f5361666545524332303a206c6f772d6c6576656c2063616c6c206661696c6564815250856001600160a01b03166108bb9092919063ffffffff16565b8051909150156106cf57808060200190518101906107dc9190610b55565b6106cf5760405162461bcd60e51b815260206004820152602a60248201527f5361666545524332303a204552433230206f7065726174696f6e20646964206e6044820152691bdd081cdd58d8d9595960b21b6064820152608401610203565b600081815b84518110156108a757600085828151811061085d5761085d610b77565b602002602001015190508083116108835760008381526020829052604090209250610894565b600081815260208490526040902092505b508061089f81610b8d565b915050610840565b509392505050565b60006105178284610ba8565b60606102d48484600085856001600160a01b0385163b61091d5760405162461bcd60e51b815260206004820152601d60248201527f416464726573733a2063616c6c20746f206e6f6e2d636f6e74726163740000006044820152606401610203565b600080866001600160a01b031685876040516109399190610bfa565b60006040518083038185875af1925050503d8060008114610976576040519150601f19603f3d011682016040523d82523d6000602084013e61097b565b606091505b509150915061098b828286610996565b979650505050505050565b606083156109a55750816102d7565b8251156109b55782518084602001fd5b8160405162461bcd60e51b81526004016102039190610c16565b6000806000604084860312156109e457600080fd5b8335925060208401356001600160401b0380821115610a0257600080fd5b818601915086601f830112610a1657600080fd5b813581811115610a2557600080fd5b8760208260051b8501011115610a3a57600080fd5b6020830194508093505050509250925092565b6001600160a01b0391909116815260200190565b600060208284031215610a7357600080fd5b5035919050565b600060208284031215610a8c57600080fd5b81356001600160a01b03811681146102d757600080fd5b600060208284031215610ab557600080fd5b5051919050565b6020808252818101527f4f776e61626c653a2063616c6c6572206973206e6f7420746865206f776e6572604082015260600190565b634e487b7160e01b600052601160045260246000fd5b60008219821115610b1a57610b1a610af1565b500190565b600082821015610b3157610b31610af1565b500390565b6000816000190483118215151615610b5057610b50610af1565b500290565b600060208284031215610b6757600080fd5b815180151581146102d757600080fd5b634e487b7160e01b600052603260045260246000fd5b6000600019821415610ba157610ba1610af1565b5060010190565b600082610bc557634e487b7160e01b600052601260045260246000fd5b500490565b60005b83811015610be5578181015183820152602001610bcd565b83811115610bf4576000848401525b50505050565b60008251610c0c818460208701610bca565b9190910192915050565b6020815260008251806020840152610c35816040850160208701610bca565b601f01601f1916919091016040019291505056fea26469706673582212207816b7770a0055b88525548d261a6321ab9c7865a79f789df455c233b11d221164736f6c634300080b0033",
  "immutableReferences": {},
  "source": "/// SPDX-License-Identifier: MIT\npragma solidity 0.8.11;\nimport \"@openzeppelin/contracts/token/ERC20/utils/SafeERC20.sol\";\nimport \"@openzeppelin/contracts/token/ERC20/IERC20.sol\";\nimport \"@openzeppelin/contracts/security/ReentrancyGuard.sol\";\nimport \"@openzeppelin/contracts/utils/math/SafeMath.sol\";\nimport \"@openzeppelin/contracts/access/Ownable.sol\";\nimport \"@openzeppelin/contracts/utils/cryptography/MerkleProof.sol\";\n\ncontract Vesting is Ownable, ReentrancyGuard {\n    using SafeERC20 for IERC20;\n    using SafeMath for uint256;\n\n    IERC20 token;\n\n    bytes32 private merkleRoot;\n    uint256 public vestingLength;\n    uint256 startTime;\n    uint256 endTime;\n\n    mapping (address => uint256) claimed;\n\n    constructor(address _token) {\n        vestingLength = 365 days;\n        startTime = block.timestamp;\n        endTime = startTime.add(vestingLength);\n        token = IERC20(_token);\n    }\n\n    error InvalidProof();\n    error AlreadyClaimed();\n\n    /// @notice The total supply of tokens remaining in the contract.\n    function totalSupply() public view returns (uint256) {\n        return token.balanceOf(address(this));\n    }\n\n    /// @notice Add merkle tree data to the contract.\n    /// @param root merkle tree root.\n    function addMerkleData(bytes32 root) external onlyOwner {\n        merkleRoot = root;\n    }\n\n    /// @notice Returns the total remaining balance the for the calling user.\n    /// @param sAmount The total amount the user is entitled to at init time.\n    /// @param proof The merkle proof, generated offchain and passed from the frontend.\n    function remainingBalance(uint256 sAmount, bytes32[] calldata proof) public view returns (uint256) {\n        _verifyProof(msg.sender, sAmount, proof);\n        return sAmount.sub(claimed[msg.sender]);\n    }\n\n    /// @notice Returns the total amount currently claimable by the user.\n    /// @param sAmount The total amount the user is entitled to at init time.\n    /// @param proof The merkle proof, generated offchain and passed from the frontend.\n    function claimable(uint256 sAmount, bytes32[] calldata proof) public view returns (uint256) {\n        if (claimed[msg.sender] > sAmount) revert AlreadyClaimed();\n        _verifyProof(msg.sender, sAmount, proof); \n\n        uint256 amount = _getAmount(msg.sender, sAmount);\n        return amount;\n    }\n\n    /// @notice Claims the amount the user is entitled to.\n    /// @param sAmount The total amount the user is entitled to at init time.\n    /// @param proof The merkle proof, generated offchain and passed from the frontend.\n    function claim(uint256 sAmount, bytes32[] calldata proof) external nonReentrant {\n        if (claimed[msg.sender] >= sAmount) revert AlreadyClaimed();\n        _verifyProof(msg.sender, sAmount, proof);\n\n        uint256 amount = _getAmount(msg.sender, sAmount);\n        claimed[msg.sender] = claimed[msg.sender].add(amount);\n        token.safeTransfer(msg.sender, amount);\n    }\n\n    /// @notice Verifies the merkle data.\n    /// @param account the user account\n    /// @param sAmount The total amount the user is entitled to at init time.\n    /// @param proof The merkle proof, generated offchain and passed from the frontend.\n    function _verifyProof(address account, uint256 sAmount, bytes32[] calldata proof) internal view {\n        bytes32 node = keccak256(abi.encodePacked(account, sAmount));\n        //if (!MerkleProof.verify(proof, merkleRoot, node)) revert InvalidProof();\n        require(MerkleProof.verify(proof, merkleRoot, node), \"INVALID PROOF\");\n    }\n\n    /// @notice Returns the total amount the user is currently entitled to. Used during claiming.\n    /// @param account the user account\n    /// @param sAmount The total amount the user is entitled to at init time.\n    /// @return The total amount the user is currently entitled to.\n    function _getAmount(address account, uint256 sAmount) internal view returns (uint256) {\n        uint256 rate = _getRate(sAmount);\n        uint256 timePassed = block.timestamp.sub(startTime);\n        uint256 amount = (timePassed.mul(rate)).sub(claimed[account]);\n        uint256 rBalance = sAmount.sub(claimed[account]);\n        if (amount > rBalance) return rBalance;\n        return amount;\n    }\n\n    /// @notice The rate the user should receive rewards. Used to calculate their claimable amount.\n    /// @param sAmount The total amount the user is entitled to at init time.\n    function _getRate(uint256 sAmount) internal view returns (uint256) {\n        return sAmount.div(vestingLength);\n    }\n\n    /// @notice Emergency withdraws all funds to contract owner. This is only to use in extreme circumstances\n    function emergencyWithdraw () external onlyOwner {\n        token.safeTransfer(owner(), token.balanceOf(address(this)));\n    }\n}",
  "sourcePath": "/Users/kmo/Github/vesting/src/contracts/Vesting.sol",
  "compiler": {
    "name": "solc",
    "version": "0.8.11+commit.d7f03943.Emscripten.clang"
  },
  "schemaVersion": "3.4.3",
  "updatedAt": "2022-02-15T21:25:02.832Z",
  "networkType": "ethereum",
  "devdoc": {
    "kind": "dev",
    "methods": {
      "addMerkleData(bytes32)": {
        "params": {
          "root": "merkle tree root."
        }
      },
      "claim(uint256,bytes32[])": {
        "params": {
          "proof": "The merkle proof, generated offchain and passed from the frontend.",
          "sAmount": "The total amount the user is entitled to at init time."
        }
      },
      "claimable(uint256,bytes32[])": {
        "params": {
          "proof": "The merkle proof, generated offchain and passed from the frontend.",
          "sAmount": "The total amount the user is entitled to at init time."
        }
      },
      "owner()": {
        "details": "Returns the address of the current owner."
      },
      "remainingBalance(uint256,bytes32[])": {
        "params": {
          "proof": "The merkle proof, generated offchain and passed from the frontend.",
          "sAmount": "The total amount the user is entitled to at init time."
        }
      },
      "renounceOwnership()": {
        "details": "Leaves the contract without owner. It will not be possible to call `onlyOwner` functions anymore. Can only be called by the current owner. NOTE: Renouncing ownership will leave the contract without an owner, thereby removing any functionality that is only available to the owner."
      },
      "transferOwnership(address)": {
        "details": "Transfers ownership of the contract to a new account (`newOwner`). Can only be called by the current owner."
      }
    },
    "version": 1
  },
  "userdoc": {
    "kind": "user",
    "methods": {
      "addMerkleData(bytes32)": {
        "notice": "Add merkle tree data to the contract."
      },
      "claim(uint256,bytes32[])": {
        "notice": "Claims the amount the user is entitled to."
      },
      "claimable(uint256,bytes32[])": {
        "notice": "Returns the total amount currently claimable by the user."
      },
      "emergencyWithdraw()": {
        "notice": "Emergency withdraws all funds to contract owner. This is only to use in extreme circumstances"
      },
      "remainingBalance(uint256,bytes32[])": {
        "notice": "Returns the total remaining balance the for the calling user."
      },
      "totalSupply()": {
        "notice": "The total supply of tokens remaining in the contract."
      }
    },
    "version": 1
  }
}