{
    "contractName": "Test",
    "abi": [
        {
            "inputs": [],
            "stateMutability": "nonpayable",
            "type": "constructor"
        },
        {
            "anonymous": false,
            "inputs": [
                {
                    "indexed": false,
                    "internalType": "uint256",
                    "name": "id",
                    "type": "uint256"
                }
            ],
            "name": "Mint",
            "type": "event"
        },
        {
            "inputs": [
                {
                    "internalType": "bytes32",
                    "name": "root",
                    "type": "bytes32"
                }
            ],
            "name": "setRoot",
            "outputs": [],
            "stateMutability": "nonpayable",
            "type": "function"
        },
        {
            "inputs": [
                {
                    "internalType": "bytes32[]",
                    "name": "proof",
                    "type": "bytes32[]"
                },
                {
                    "internalType": "bytes",
                    "name": "data",
                    "type": "bytes"
                },
                {
                    "internalType": "bytes32",
                    "name": "next",
                    "type": "bytes32"
                }
            ],
            "name": "test",
            "outputs": [],
            "stateMutability": "nonpayable",
            "type": "function"
        }
    ],
    "bytecode": "608060405234801561001057600080fd5b5061038b806100206000396000f3fe608060405234801561001057600080fd5b50600436106100365760003560e01c80636c2ebb8b1461003b578063dab5f34014610050575b600080fd5b61004e610049366004610203565b610063565b005b61004e61005e3660046102ed565b600055565b6000610071838501856102ed565b905061009785600054868660405161008a929190610306565b604051809103902061011a565b6100d75760405162461bcd60e51b815260206004820152600d60248201526c24a72b20a624a210282927a7a360991b604482015260640160405180910390fd5b6100e082600055565b6040518181527f07883703ed0e86588a40d76551c92f8a4b329e3bf19765e0e6749473c1a846659060200160405180910390a15050505050565b6000826101278584610130565b14949350505050565b600081815b845181101561019c57600085828151811061015257610152610316565b602002602001015190508083116101785760008381526020829052604090209250610189565b600081815260208490526040902092505b50806101948161032c565b915050610135565b509392505050565b634e487b7160e01b600052604160045260246000fd5b60008083601f8401126101cc57600080fd5b50813567ffffffffffffffff8111156101e457600080fd5b6020830191508360208285010111156101fc57600080fd5b9250929050565b6000806000806060858703121561021957600080fd5b843567ffffffffffffffff8082111561023157600080fd5b818701915087601f83011261024557600080fd5b8135602082821115610259576102596101a4565b8160051b604051601f19603f8301168101818110868211171561027e5761027e6101a4565b6040529283528481018201928281018c85111561029a57600080fd5b958301955b848710156102b6578635815295830195830161029f565b50985050880135925050808211156102cd57600080fd5b506102da878288016101ba565b9598909750949560400135949350505050565b6000602082840312156102ff57600080fd5b5035919050565b8183823760009101908152919050565b634e487b7160e01b600052603260045260246000fd5b600060001982141561034e57634e487b7160e01b600052601160045260246000fd5b506001019056fea2646970667358221220b9ac4aecd2cbc45606e87bcce068b2857ba2f6146532ea5234cbe32e4a1f9b8864736f6c634300080b0033",
    "sourcePath": "/Users/kmo/Github/vesting/src/contracts/Test.sol",
    "compiler": {
        "name": "solc",
        "version": "0.8.11+commit.d7f03943"
    },
    "functionHashes": {
        "setRoot(bytes32)": "dab5f340",
        "test(bytes32[],bytes,bytes32)": "6c2ebb8b"
    },
    "gasEstimates": {
        "creation": {
            "codeDepositCost": "181400",
            "executionCost": "226",
            "totalCost": "181626"
        },
        "external": {
            "setRoot(bytes32)": "22312",
            "test(bytes32[],bytes,bytes32)": "infinite"
        }
    }
}